{
  "_format": "hh-sol-artifact-1",
  "contractName": "WavePortal",
  "sourceName": "contracts/WavePortal.sol",
  "abi": [
    {
      "inputs": [],
      "stateMutability": "payable",
      "type": "constructor"
    },
    {
      "anonymous": false,
      "inputs": [
        {
          "indexed": true,
          "internalType": "address",
          "name": "from",
          "type": "address"
        },
        {
          "indexed": false,
          "internalType": "uint256",
          "name": "timestamp",
          "type": "uint256"
        },
        {
          "indexed": false,
          "internalType": "string",
          "name": "message",
          "type": "string"
        }
      ],
      "name": "newWave",
      "type": "event"
    },
    {
      "inputs": [],
      "name": "getAllWaves",
      "outputs": [
        {
          "components": [
            {
              "internalType": "address",
              "name": "waver",
              "type": "address"
            },
            {
              "internalType": "string",
              "name": "message",
              "type": "string"
            },
            {
              "internalType": "uint256",
              "name": "timestamp",
              "type": "uint256"
            }
          ],
          "internalType": "struct WavePortal.Wave[]",
          "name": "",
          "type": "tuple[]"
        }
      ],
      "stateMutability": "view",
      "type": "function"
    },
    {
      "inputs": [],
      "name": "getTotalWaves",
      "outputs": [
        {
          "internalType": "uint256",
          "name": "",
          "type": "uint256"
        }
      ],
      "stateMutability": "view",
      "type": "function"
    },
    {
      "inputs": [
        {
          "internalType": "address",
          "name": "",
          "type": "address"
        }
      ],
      "name": "lastWavedAt",
      "outputs": [
        {
          "internalType": "uint256",
          "name": "",
          "type": "uint256"
        }
      ],
      "stateMutability": "view",
      "type": "function"
    },
    {
      "inputs": [
        {
          "internalType": "string",
          "name": "_message",
          "type": "string"
        }
      ],
      "name": "wave",
      "outputs": [],
      "stateMutability": "nonpayable",
      "type": "function"
    },
    {
      "inputs": [],
      "name": "waveCheck",
      "outputs": [],
      "stateMutability": "view",
      "type": "function"
    }
  ],
  "bytecode": "0x608060405262000033604051806060016040528060258152602001620015d4602591396200006a60201b6200072d1760201c565b60646001544244620000469190620001b7565b620000529190620001b7565b6200005e919062000254565b600181905550620002fb565b6200010a8160405160240162000081919062000177565b6040516020818303038152906040527f41304fac000000000000000000000000000000000000000000000000000000007bffffffffffffffffffffffffffffffffffffffffffffffffffffffff19166020820180517bffffffffffffffffffffffffffffffffffffffffffffffffffffffff83818316178352505050506200010d60201b60201c565b50565b60008151905060006a636f6e736f6c652e6c6f679050602083016000808483855afa5050505050565b600062000143826200019b565b6200014f8185620001a6565b9350620001618185602086016200021e565b6200016c81620002ea565b840191505092915050565b6000602082019050818103600083015262000193818462000136565b905092915050565b600081519050919050565b600082825260208201905092915050565b6000620001c48262000214565b9150620001d18362000214565b9250827fffffffffffffffffffffffffffffffffffffffffffffffffffffffffffffffff038211156200020957620002086200028c565b5b828201905092915050565b6000819050919050565b60005b838110156200023e57808201518184015260208101905062000221565b838111156200024e576000848401525b50505050565b6000620002618262000214565b91506200026e8362000214565b925082620002815762000280620002bb565b5b828206905092915050565b7f4e487b7100000000000000000000000000000000000000000000000000000000600052601160045260246000fd5b7f4e487b7100000000000000000000000000000000000000000000000000000000600052601260045260246000fd5b6000601f19601f8301169050919050565b6112c9806200030b6000396000f3fe608060405234801561001057600080fd5b50600436106100575760003560e01c806335f53af51461005c578063449d46c0146100665780639a2cdc0814610082578063a42a4663146100a0578063bd43a908146100d0575b600080fd5b6100646100ee565b005b610080600480360381019061007b9190610b0f565b61017d565b005b61008a610579565b6040516100979190610f5b565b60405180910390f35b6100ba60048036038101906100b59190610ae6565b6105c4565b6040516100c79190610f5b565b60405180910390f35b6100d86105dc565b6040516100e59190610e12565b60405180910390f35b6001600054111561013c576101376040518060400160405280600f81526020017f50656f706c65206c6f766520796f75000000000000000000000000000000000081525061072d565b61017b565b61017a6040518060400160405280601081526020017f4e6f206f6e65206c6f76657320796f750000000000000000000000000000000081525061072d565b5b565b42610384600360003373ffffffffffffffffffffffffffffffffffffffff1673ffffffffffffffffffffffffffffffffffffffff168152602001908152602001600020546101cb9190611078565b1061020b576040517f08c379a000000000000000000000000000000000000000000000000000000000815260040161020290610f1b565b60405180910390fd5b42600360003373ffffffffffffffffffffffffffffffffffffffff1673ffffffffffffffffffffffffffffffffffffffff1681526020019081526020016000208190555060016000808282546102619190611078565b925050819055506102a86040518060400160405280601681526020017f257320776176656420772f206d6573736167652025730000000000000000000081525033836107c6565b600260405180606001604052803373ffffffffffffffffffffffffffffffffffffffff16815260200183815260200142815250908060018154018082558091505060019003906000526020600020906003020160009091909190915060008201518160000160006101000a81548173ffffffffffffffffffffffffffffffffffffffff021916908373ffffffffffffffffffffffffffffffffffffffff16021790555060208201518160010190805190602001906103679291906109c6565b506040820151816002015550503373ffffffffffffffffffffffffffffffffffffffff167f827fc0b1433d32e3710239670a4c525416496a64d64f2374a5e4ea595c0738c642836040516103bc929190610f76565b60405180910390a2606460015442446103d59190611078565b6103df9190611078565b6103e9919061117e565b6001819055506104306040518060400160405280601681526020017f52616e646f6d20232067656e6572617465643a20256400000000000000000000815250600154610865565b603260015411610576576104796040518060400160405280600781526020017f257320776f6e210000000000000000000000000000000000000000000000000081525033610901565b6000655af3107a40009050478111156104c7576040517f08c379a00000000000000000000000000000000000000000000000000000000081526004016104be90610f3b565b60405180910390fd5b60003373ffffffffffffffffffffffffffffffffffffffff16826040516104ed90610dfd565b60006040518083038185875af1925050503d806000811461052a576040519150601f19603f3d011682016040523d82523d6000602084013e61052f565b606091505b5050905080610573576040517f08c379a000000000000000000000000000000000000000000000000000000000815260040161056a90610efb565b60405180910390fd5b50505b50565b60006105bc6040518060400160405280601781526020017f5765206861766520256420746f74616c20776176657321000000000000000000815250600054610865565b600054905090565b60036020528060005260406000206000915090505481565b60606002805480602002602001604051908101604052809291908181526020016000905b8282101561072457838290600052602060002090600302016040518060600160405290816000820160009054906101000a900473ffffffffffffffffffffffffffffffffffffffff1673ffffffffffffffffffffffffffffffffffffffff1673ffffffffffffffffffffffffffffffffffffffff1681526020016001820180546106899061114c565b80601f01602080910402602001604051908101604052809291908181526020018280546106b59061114c565b80156107025780601f106106d757610100808354040283529160200191610702565b820191906000526020600020905b8154815290600101906020018083116106e557829003601f168201915b5050505050815260200160028201548152505081526020019060010190610600565b50505050905090565b6107c3816040516024016107419190610e34565b6040516020818303038152906040527f41304fac000000000000000000000000000000000000000000000000000000007bffffffffffffffffffffffffffffffffffffffffffffffffffffffff19166020820180517bffffffffffffffffffffffffffffffffffffffffffffffffffffffff838183161783525050505061099d565b50565b6108608383836040516024016107de93929190610e86565b6040516020818303038152906040527fe0e9ad4f000000000000000000000000000000000000000000000000000000007bffffffffffffffffffffffffffffffffffffffffffffffffffffffff19166020820180517bffffffffffffffffffffffffffffffffffffffffffffffffffffffff838183161783525050505061099d565b505050565b6108fd828260405160240161087b929190610ecb565b6040516020818303038152906040527f9710a9d0000000000000000000000000000000000000000000000000000000007bffffffffffffffffffffffffffffffffffffffffffffffffffffffff19166020820180517bffffffffffffffffffffffffffffffffffffffffffffffffffffffff838183161783525050505061099d565b5050565b6109998282604051602401610917929190610e56565b6040516020818303038152906040527f319af333000000000000000000000000000000000000000000000000000000007bffffffffffffffffffffffffffffffffffffffffffffffffffffffff19166020820180517bffffffffffffffffffffffffffffffffffffffffffffffffffffffff838183161783525050505061099d565b5050565b60008151905060006a636f6e736f6c652e6c6f679050602083016000808483855afa5050505050565b8280546109d29061114c565b90600052602060002090601f0160209004810192826109f45760008555610a3b565b82601f10610a0d57805160ff1916838001178555610a3b565b82800160010185558215610a3b579182015b82811115610a3a578251825591602001919060010190610a1f565b5b509050610a489190610a4c565b5090565b5b80821115610a65576000816000905550600101610a4d565b5090565b6000610a7c610a7784610fd7565b610fa6565b905082815260208101848484011115610a9457600080fd5b610a9f84828561110a565b509392505050565b600081359050610ab68161127c565b92915050565b600082601f830112610acd57600080fd5b8135610add848260208601610a69565b91505092915050565b600060208284031215610af857600080fd5b6000610b0684828501610aa7565b91505092915050565b600060208284031215610b2157600080fd5b600082013567ffffffffffffffff811115610b3b57600080fd5b610b4784828501610abc565b91505092915050565b6000610b5c8383610d8f565b905092915050565b610b6d816110ce565b82525050565b610b7c816110ce565b82525050565b6000610b8d82611017565b610b97818561103a565b935083602082028501610ba985611007565b8060005b85811015610be55784840389528151610bc68582610b50565b9450610bd18361102d565b925060208a01995050600181019050610bad565b50829750879550505050505092915050565b6000610c0282611022565b610c0c8185611056565b9350610c1c818560208601611119565b610c258161126b565b840191505092915050565b6000610c3b82611022565b610c458185611067565b9350610c55818560208601611119565b610c5e8161126b565b840191505092915050565b6000610c76602883611067565b91507f4661696c75726520746f207769746864726177206d6f6e65792066726f6d206360008301527f6f6e74726163742e0000000000000000000000000000000000000000000000006020830152604082019050919050565b6000610cdc60008361104b565b9150600082019050919050565b6000610cf6600f83611067565b91507f57616974203135206d696e7574657300000000000000000000000000000000006000830152602082019050919050565b6000610d36603883611067565b91507f547279696e6720746f207769746864726177206d6f7265206d6f6e657920746860008301527f616e20776861742074686520636f6e74726163742068617300000000000000006020830152604082019050919050565b6000606083016000830151610da76000860182610b64565b5060208301518482036020860152610dbf8282610bf7565b9150506040830151610dd46040860182610ddf565b508091505092915050565b610de881611100565b82525050565b610df781611100565b82525050565b6000610e0882610ccf565b9150819050919050565b60006020820190508181036000830152610e2c8184610b82565b905092915050565b60006020820190508181036000830152610e4e8184610c30565b905092915050565b60006040820190508181036000830152610e708185610c30565b9050610e7f6020830184610b73565b9392505050565b60006060820190508181036000830152610ea08186610c30565b9050610eaf6020830185610b73565b8181036040830152610ec18184610c30565b9050949350505050565b60006040820190508181036000830152610ee58185610c30565b9050610ef46020830184610dee565b9392505050565b60006020820190508181036000830152610f1481610c69565b9050919050565b60006020820190508181036000830152610f3481610ce9565b9050919050565b60006020820190508181036000830152610f5481610d29565b9050919050565b6000602082019050610f706000830184610dee565b92915050565b6000604082019050610f8b6000830185610dee565b8181036020830152610f9d8184610c30565b90509392505050565b6000604051905081810181811067ffffffffffffffff82111715610fcd57610fcc61123c565b5b8060405250919050565b600067ffffffffffffffff821115610ff257610ff161123c565b5b601f19601f8301169050602081019050919050565b6000819050602082019050919050565b600081519050919050565b600081519050919050565b6000602082019050919050565b600082825260208201905092915050565b600081905092915050565b600082825260208201905092915050565b600082825260208201905092915050565b600061108382611100565b915061108e83611100565b9250827fffffffffffffffffffffffffffffffffffffffffffffffffffffffffffffffff038211156110c3576110c26111af565b5b828201905092915050565b60006110d9826110e0565b9050919050565b600073ffffffffffffffffffffffffffffffffffffffff82169050919050565b6000819050919050565b82818337600083830152505050565b60005b8381101561113757808201518184015260208101905061111c565b83811115611146576000848401525b50505050565b6000600282049050600182168061116457607f821691505b602082108114156111785761117761120d565b5b50919050565b600061118982611100565b915061119483611100565b9250826111a4576111a36111de565b5b828206905092915050565b7f4e487b7100000000000000000000000000000000000000000000000000000000600052601160045260246000fd5b7f4e487b7100000000000000000000000000000000000000000000000000000000600052601260045260246000fd5b7f4e487b7100000000000000000000000000000000000000000000000000000000600052602260045260246000fd5b7f4e487b7100000000000000000000000000000000000000000000000000000000600052604160045260246000fd5b6000601f19601f8301169050919050565b611285816110ce565b811461129057600080fd5b5056fea2646970667358221220182c68873a2e510bcda806073a48c24ad950cee6d4609a424359ec11b6753c2b64736f6c63430008000033596f20796f2c204920616d206120636f6e747261637420616e64204920616d20736d617274",
  "linkReferences": {},
  "deployedLinkReferences": {}
}